:100000000C9446000C9465000C9465000C946500FB
:100010000C9465000C9465000C9465000C946500CC
:100020000C9465000C9465000C9465000C946500BC
:100030000C9465000C9465000C9465000C946500AC
:100040000C9465000C9465000C9465000C9465009C
:100050000C9465000C9465000C9465000C9465008C
:100060000C9465000C9465000C9465000C9465007C
:100070000C9465000C9465000C9465000C9465006C
:100080000C9465000C9465000C94650011241FBE4F
:10009000CFEFD0E4DEBFCDBF11E0A0E0B1E0E0E5FE
:1000A000F2E000E00BBF02C007900D92AE30B10746
:1000B000D9F711E0AEE0B1E001C01D92A031B10767
:1000C000E1F70E941A010C9426010C940000CF93D2
:1000D000C82F8A3019F48DE00E9467009091C0000B
:1000E00095FFFCCFC093C60080E090E0CF910895CB
:1000F00080910E0190910F018230910509F44BC05F
:1001000028F4009759F0019781F108958330910503
:1001100009F456C0049709F47BC0089518B880B15B
:100120008370813039F481E090E090930F018093E7
:100130000E01089580B18370823039F482E090E03E
:1001400090930F0180930E01089580B183708330E6
:1001500039F484E090E090930F0180930E010895AC
:1001600010920F0110920E01089588B1893048F065
:1001700089E088B983E090E090930F0180930E01AD
:10018000089588B18F5F88B983E090E090930F0164
:1001900080930E01089588B1811108C018B883E0DA
:1001A00090E090930F0180930E01089588B18150E3
:1001B00088B983E090E090930F0180930E01089539
:1001C00080B18370813039F481E090E090930F0129
:1001D00080930E01089580B18370823039F482E0FB
:1001E00090E090930F0180930E01089580B1837089
:1001F000833039F484E090E090930F0180930E01F6
:10020000089583E090E090930F0180930E0108958C
:1002100080B18370833049F484E090E090930F01C3
:1002200080930E0187E088B9089510920F01109213
:100230000E01089511B88FEF82B987B918B81092DE
:100240000F0110920E010E947800FDCFF894FFCFAD
:0E025000000000020000000067000000000037
:00000001FF
