:100000000C9446000C9465000C9465000C946500FB
:100010000C9465000C9465000C9465000C946500CC
:100020000C9465000C9465000C9465000C946500BC
:100030000C9465000C94EE010C9465000C94650022
:100040000C9465000C9465000C9465000C9465009C
:100050000C9465000C9465000C9465000C9465008C
:100060000C9465000C9465000C9465000C9465007C
:100070000C9465000C9465000C9465000C9465006C
:100080000C9465000C9465000C94650011241FBE4F
:10009000CFEFD0E4DEBFCDBF12E0A0E0B1E0EAEFE9
:1000A000F4E100E00BBF02C007900D92A231B1074E
:1000B000D9F712E0A2E1B2E001C01D92AD37B1075D
:1000C000E1F70E94C9070C947B0A0C9400009C0184
:1000D00090B190959670909379022115310521F099
:1000E0002130310599F136C09923A1F0923051F4B5
:1000F00080911201833731F081E48093120151E045
:1001000040E00DC0943049F484E48093120151E042
:1001100040E005C0522F432F02C051E040E08091E3
:100120007800909179009093720280937102863BDF
:1001300063E0960718F062E060931101C39750F4F2
:1001400081E080931101252F342F04C0911102C04A
:1001500020E030E0C90108950F931F93CF93DF9300
:10016000B62FA72FF82FE92F022F132FD42FC52F2B
:1001700004C0062F172FD82FC92F6B2F7A2F8F2F40
:100180009E2F202F312F4D2F5C2F0E94CA08B02F99
:10019000A12FFD2FEC2F611571058105910549F700
:1001A000602F712F8D2F9C2FDF91CF911F910F9179
:1001B000089590E002C0959587956A95E2F7817061
:1001C0000895442349F021E030E002C0220F331F9C
:1001D0006A95E2F7822B089521E030E002C0220FF9
:1001E000331F6A95E2F720958223089540E064E08A
:1001F0008FEF0E94E10088B9000086B160E070E0F6
:1002000080950E94D90081118FC086B161E070E0B5
:1002100080950E94D900811189C086B162E070E0AA
:1002200080950E94D900811183C086B163E070E09F
:1002300080950E94D90081117DC040E065E08FEF7C
:100240000E94E10088B9000086B160E070E080950E
:100250000E94D900811170C086B161E070E0809584
:100260000E94D90081116AC086B162E070E0809579
:100270000E94D900811164C086B163E070E080956E
:100280000E94D90081115EC040E066E08FEF0E94BD
:10029000E10088B9000086B160E070E080950E94BE
:1002A000D900811151C086B161E070E080950E9453
:1002B000D90081114BC086B162E070E080950E9448
:1002C000D900811145C086B163E070E080950E943D
:1002D000D90081113FC040E067E08FEF0E94E1004C
:1002E00088B9000086B160E070E080950E94D90076
:1002F000811132C086B161E070E080950E94D90022
:1003000081112CC086B162E070E080950E94D90016
:10031000811126C086B163E070E080950E94D9000B
:100320008823F9F084E4089581E3089584E308952F
:1003300087E308958AE2089582E3089585E30895A6
:1003400088E3089580E3089583E3089586E308959C
:1003500089E3089583E2089581E4089582E408958D
:1003600083E408956093590170935A0180935B016F
:1003700090935C01609317027093180280931902A6
:1003800090931A0208958BE0809381008DE790E0AE
:10039000909389008093880082E080936F00109290
:1003A0008500109284008091590190915A01A0918A
:1003B0005B01B0915C018093170290931802A093A7
:1003C0001902B0931A028FB780688FBF08951092F8
:1003D0008100089581E080931B0208951F920F927F
:1003E0000FB60F9211240BB60F922F933F934F939A
:1003F0005F936F937F938F939F93AF93BF93EF938D
:10040000FF938091170290911802A0911902B09168
:100410001A020197A109B10980931702909318025B
:10042000A0931902B0931A02892B8A2B8B2B91F47B
:100430000E94EA018091590190915A01A0915B01BB
:10044000B0915C018093170290931802A093190257
:10045000B0931A02FF91EF91BF91AF919F918F914D
:100460007F916F915F914F913F912F910F900BBEB4
:100470000F900FBE0F901F90189588B95E985D98E9
:100480005F9A82E08A95F1F700C05F988FE99FE05C
:100490000197F1F700C00000089588B95E9A5D9851
:1004A0005F9A82E08A95F1F700C05F988FE99FE03C
:1004B0000197F1F700C0000008958FEF8AB987B95E
:1004C0008FE39CE90197F1F700C0000088E30E94E8
:1004D0003D028CE00E943D0286E00E943D0281E0E8
:1004E0000E943D028FE99FE00197F1F700C00000F4
:1004F00080E80E943D0208950F931F93CF93DF93EE
:100500008C01C0E0D0E003C00E944D022196F801AA
:10051000EC0FFD1F80818111F7CFDF91CF911F91EB
:100520000F910895CF93DF93EA01811108C06031E4
:1005300034F4862F8F7080680E943D0209C081309C
:1005400039F460312CF4862F8F70806C0E943D024C
:10055000CE010E947C02DF91CF91089581E00E943C
:100560003D0280E80E943D020895CF93DF93EC01A5
:100570008130910571F082309105B1F0009739F525
:10058000809112018337D9F0813409F5C1E0D0E0C0
:100590001EC0809112018337A9F08434C1F40E94F7
:1005A000AE02C0E0D0E013C080911201833779F031
:1005B000843459F40E94AE02C0E0D0E008C0C2E02A
:1005C000D0E005C0C2E0D0E002C0C1E0D0E020979A
:1005D00069F050C0822F90E0FC01EC5CFE4F30814E
:1005E000FC01E75CFE4F30832F5F01C020E0253027
:1005F00088F380E00BC0282F30E0F901E65DFE4F64
:100600009081F901E15DFE4F90838F5F853098F313
:1006100080E00BC0282F30E0F901E25EFE4F9081B0
:10062000F901ED5DFE4F90838F5F853098F380E098
:100630000BC0282F30E0F901EC5EFE4F9081F901EC
:10064000E75EFE4F90838F5F853098F3109214021F
:100650001092130281E080932901809328018093F6
:1006600013011092120280E80E943D0281ED91E098
:100670000E947C02CE01DF91CF9108950F931F93CA
:10068000CF93883090F48B01880F880F880F805C9F
:100690000E943D02C0E007C0F801EC0FF11D80810F
:1006A0000E944D02CF5FC830B8F3CF911F910F91D8
:1006B0000895813120F481580E943D0208958155AA
:1006C0000E943D0208951F93CF93DF93EC01609148
:1006D000290181E090E00E946D0A81E090E00E9493
:1006E000650A182F8093650282E090E00E94650AF7
:1006F00080936202811730F46091290182E090E0DA
:100700000E946D0A82E090E00E94650A8093620276
:10071000209709F095C0309165029DEC399F212DFD
:10072000112426952695269520936E02220F422F9E
:10073000440F440F240F321B30937802899F912D70
:10074000112496959695969590936302990F292F6B
:10075000220F220F920F891B80937602E0912801CD
:10076000F0E0E25DFE4F908180911001981741F01A
:10077000E0911301F0E0E85EFE4F908189132EC0F6
:100780008091120281112AC083E7809312010E9496
:10079000AE0280E80E943D0283EE91E00E947C025E
:1007A00080916302805D0E944D0280917602805D9F
:1007B0000E944D0281E10E94590382EF91E00E9464
:1007C0007C0281E08093120280916E02805D0E9423
:1007D0004D0280917802805D0E944D0280916502F9
:1007E000813370F18091120281112AC083E78093D6
:1007F00012010E94AE0280E80E943D028AEF91E061
:100800000E947C0280916302805D0E944D02809173
:100810007602805D0E944D0281E10E94590382EFC1
:1008200091E00E947C0281E08093120280916E022E
:10083000805D0E944D0280917802805D0E944D0291
:10084000CE01DF91CF911F910895CF93DF93EC01FB
:10085000009779F580911201813459F58091110149
:10086000823051F480911001813130F080518093B9
:10087000100183E08093110180911101813051F4C6
:1008800080911001813130F4805F8093100183E00A
:1008900080931101809110010E94590380912901D8
:1008A00080FF04C082E00E944D0203C081E00E94EC
:1008B0004D02CE01DF91CF910895CF93DF93EC01EC
:1008C000009709F074C080911201813409F06FC063
:1008D00080911402E82FF0E0E75CFE4F20819091B8
:1008E0002901291303C08F5F809314020E94AE0276
:1008F00080912801809375021CC0F0E0E25DFE4FFC
:1009000080810E94590380E00E944D02809175020F
:10091000E82FF0E0E25DFE4F9081915090839111BD
:1009200005C0909128019F5F909328018F5F80936D
:100930007502E0917502809114028E17F0F6909185
:100940001302E92FF0E0ED5DFE4F20818091290137
:10095000281303C09F5F909313028F5F8093290138
:1009600080911301809375021CC0F0E0E85EFE4F99
:1009700080810E94590380E00E944D02809175029F
:10098000E82FF0E0E85EFE4F908191509083903127
:1009900029F4909113019F5F909313018F5F8093CF
:1009A0007502E0917502809113028E17F0F6CE0168
:1009B000DF91CF910895CF9380916F029091700253
:1009C0008230910509F474C030F4009751F001971A
:1009D00009F453C087C08330910579F1049769F019
:1009E00081C060E571E080E00E943E0384E090E019
:1009F0009093700280936F0275C080916402813081
:100A000039F481E090E09093700280936F026AC0A5
:100A1000823039F482E090E09093700280936F020C
:100A200061C084E090E09093700280936F028091A7
:100A30003F018F5F80933F0155C0809164028130F8
:100A400039F481E090E09093700280936F024AC085
:100A5000823039F482E090E09093700280936F02CC
:100A600041C083E090E09093700280936F02809188
:100A70003F01815080933F0135C0809164028430F2
:100A800039F484E090E09093700280936F022AC062
:100A9000883039F483E090E09093700280936F0285
:100AA00021C081E090E09093700280936F021AC0A1
:100AB00080916402843039F484E090E09093700275
:100AC00080936F020FC0883039F483E090E09093F8
:100AD000700280936F0206C082E090E090937002F3
:100AE00080936F0280916F02909170028230910525
:100AF00009F440C018F40197B9F061C08330910542
:100B000059F0049709F05BC080913F010E9459039E
:100B100080E00E944D0253C080913F010E94590322
:100B200080E00E944D024BC080913E01813049F42B
:100B300068E471E080E00E943E0382E080933E0121
:100B400011C0823079F480913F01805180933F0140
:100B5000C1E0C093580160E571E080E00E943E036F
:100B6000C0933E0180913F010E94590380E00E94A2
:100B70004D0225C080913E01823049F460E571E06C
:100B800080E00E943E0381E080933E0111C08130ED
:100B900079F480913F01805F80933F01C2E0C09370
:100BA000580168E471E080E00E943E03C0933E017A
:100BB00080913F010E94590380E00E944D02CF9135
:100BC000089580913F01813220F081E080931602E8
:100BD00011C090915801913031F4813120F081E0C1
:100BE0008093160207C0923029F4813118F481E015
:100BF0008093160280911602813049F40E94AE0261
:100C000080E80E943D0288E092E00E947C02089504
:100C1000CF93DF9300D000D0CDB7DEB783E08983D8
:100C200083E18A838AE08B8389E18C83809115023A
:100C3000843048F4FE01E80FF11D81810E945903C0
:100C400081E00E944D0280911502FE01E80FF11D26
:100C5000218190913F0129130CC090913E01923067
:100C600041F4909173029F5F909373028F5F809322
:100C700015020F900F900F900F90DF91CF91089574
:100C8000CF92DF92EF92FF926B017C0120915E0286
:100C900030915F0240916002509161020E94EC0825
:100CA000882309F458C020E030E0A901C701B6014B
:100CB0000E94EC08811106C0E1E9F0E080818870B3
:100CC000808305C0E1E9F0E080818360808328E5CE
:100CD00039E344E75FE3C701B6010E94EC088823CB
:100CE0003CF48FEF9FEF909399008093980027C07A
:100CF00020E034E244EF56E4C701B6010E94FE0949
:100D000018162CF4109299001092980018C020E048
:100D100030E040E053E4C701B6010E94020A9B01A3
:100D2000AC0160E074E284EF9AE40E94F0080E9453
:100D3000580961507109709399006093980010925E
:100D4000950010929400C0925E02D0925F02E092F1
:100D50006002F0926102FF90EF90DF90CF900895D3
:100D600080E4809390008BE08093910060E070E0DD
:100D7000CB010E94400608951092900010929100BD
:100D80000895EAE7F0E08081806E80830895E09125
:100D90007702F0E0EA59FD4F8081813439F460E058
:100DA00070EC8AE895E40E9440060895823439F494
:100DB0006DEC74E883E295E40E9440060895833464
:100DC00039F460E074E883EA95E40E9440060895EF
:100DD000843439F46AE979E887E395E40E944006AF
:100DE0000895853439F46DEC74E08EE495E40E9446
:100DF00040060895863439F46DEC74E48AE595E490
:100E00000E9440060895873439F460E070E085E779
:100E100095E40E9440060895883431F460E074E857
:100E200083EA95E40E9440060895CF93DF93EC0196
:100E30008130910529F18230910509F445C0009770
:100E400009F04AC080911201813409F045C0109226
:100E50007A020DC0282F30E0F901E85FFE4F908143
:100E6000F901EA59FD4F90838F5F80937A02809158
:100E70007A02883078F310927702C1E0D0E02CC07B
:100E800080911201843429F410927702C0E0D0E0FE
:100E900023C0833709F510927A020DC0282F30E065
:100EA000F901E050FF4F9081F901EA59FD4F90831D
:100EB0008F5F80937A0280917A02883078F3109263
:100EC0007702C2E0D0E008C080911201843421F49E
:100ED00010927702C0E0D0E0C130D10531F1C230CC
:100EE000D10509F447C0209709F04FC0E09177027F
:100EF000F0E0EE0FFF1FEE0FFF1FE759FE4F60817E
:100F000071818281938120E030E040E251E40E94CF
:100F1000020A0E944006809177028F5F80937702D9
:100F20008A3199F51092770230C060E070E0CB0111
:100F30000E9440068091710290917202863B23E0EC
:100F4000920758F020911201213439F464EA70EDCF
:100F500084EA93E40E94400618C0C397B0F48091DD
:100F60001201813491F460E074E883EA95E40E9410
:100F700040060BC00E94C706809177028F5F809366
:100F80007702883011F410927702CE01DF91CF9171
:100F90000895CF93DF93CDB7DEB72C970FB6F894B3
:100FA000DEBF0FBECDBF11B88FEF82B984B915B8BF
:100FB00087B918B88AB91BB80E94C1060E945D02A1
:100FC0000E94BC060E94B00660E571E080E00E94CD
:100FD0003E0368E471E081E00E943E0360E471E05A
:100FE00082E00E943E0382E090E00E94650A88232E
:100FF00011F0873428F061E082E090E00E946D0AF1
:101000008CE0EDE5F1E0DE01119601900D928A95FC
:10101000E1F7E3E5F2E0108286E490E0A0E0B0E0E2
:1010200081839283A383B48385839683A783B087C8
:101030002DE534E032872187E8E4F2E0108241E0D8
:1010400050E060E070E041835283638374834583A2
:1010500056836783708727E630E032872187EDE388
:10106000F2E0108281839283A383B4838583968385
:10107000A783B08725EB32E032872187E2E3F2E0F5
:10108000108281839283A383B48385839683A7830D
:10109000B08785E294E092878187E7E2F2E01082F0
:1010A00084E190E0A0E0B0E081839283A383B483E5
:1010B00085839683A783B08783E693E092878187B1
:1010C000ECE1F2E010828EE190E0A0E0B0E08183FC
:1010D0009283A383B48385839683A783B08785E1B6
:1010E00097E09287818761E070E080E090E00E9465
:1010F000B2010E94C301039905C061E082E090E063
:101100000E946D0A0E94C106E12CF12C38C0F70143
:10111000EE0FFF1FEC0FFD1F01811281D801159604
:101120004D915D916D917C91189711968D919D9146
:101130000D90BC91A02D481759076A077B0781F4D1
:10114000D8011996ED91FC911A978C91992787FDFA
:1011500090950995F8018083158216821782108672
:10116000F80185819681A781B0850196A11DB11DE9
:1011700085839683A783B087FFEFEF1AFF0A86E087
:10118000E816F10420F280911B028823E1F310920B
:101190001B02B1CFA1E21A2EAA1BBB1BFD010DC081
:1011A000AA1FBB1FEE1FFF1FA217B307E407F50717
:1011B00020F0A21BB30BE40BF50B661F771F881FF3
:1011C000991F1A9469F760957095809590959B0189
:1011D000AC01BD01CF0108959CD008F481E00895D1
:1011E0000CD0D2C0CAD040F0C1D030F021F45F3F63
:1011F00019F0B3C05111FCC0B6C0D7D098F39923F1
:10120000C9F35523B1F3951B550BBB27AA276217CA
:101210007307840738F09F5F5F4F220F331F441F0F
:10122000AA1FA9F333D00E2E3AF0E0E830D0915047
:101230005040E695001CCAF729D0FE2F27D0660F34
:10124000771F881FBB1F261737074807AB07B0E873
:1012500009F0BB0B802DBF01FF2793585F4F2AF089
:101260009E3F510568F079C0C3C05F3FECF3983EE4
:10127000DCF3869577956795B795F7959F5FC9F7E6
:10128000880F911D9695879597F90895E1E0660F6F
:10129000771F881FBB1F621773078407BA0720F0E8
:1012A000621B730B840BBA0BEE1F88F7E095089551
:1012B00004D06894B1119CC008957FD088F09F57E6
:1012C00090F0B92F9927B751A0F0D1F0660F771F92
:1012D000881F991F1AF0BA95C9F712C0B13081F072
:1012E00086D0B1E0089583C0672F782F8827B85F34
:1012F00039F0B93FCCF3869577956795B395D9F7D3
:101300003EF490958095709561957F4F8F4F9F4FDC
:101310000895990F0008550FAA0BE0E8FEEF161686
:101320001706E807F907C0F012161306E407F507D9
:1013300098F0621B730B840B950B39F40A2661F04D
:10134000232B242B252B21F408950A2609F4A140F0
:10135000A6958FEF811D811D089597F99F6780E8FD
:1013600070E060E008959FEF80EC089500240A94F7
:101370001616170618060906089500240A94121670
:101380001306140605060895092E0394000C11F4A3
:10139000882352F0BB0F40F4BF2B11F460FF04C050
:1013A0006F5F7F4F8F4F9F4F089557FD9058440FA9
:1013B000551F59F05F3F71F04795880F97FB991FB4
:1013C00061F09F3F79F08795089512161306140671
:1013D000551FF2CF4695F1DF08C0161617061806FE
:1013E000991FF1CF86957105610508940895E894D9
:1013F000BB2766277727CB0197F908958ADF08F482
:101400008FEF08950BD0C0CFB1DF28F0B6DF18F012
:10141000952309F0A2CFA7CF1124EACFC6DFA0F30E
:10142000959FD1F3950F50E0551F629FF001729F79
:10143000BB27F00DB11D639FAA27F00DB11DAA1F98
:10144000649F6627B00DA11D661F829F2227B00DE5
:10145000A11D621F739FB00DA11D621F839FA00D70
:10146000611D221F749F3327A00D611D231F849FC0
:10147000600D211D822F762F6A2F11249F57504017
:101480008AF0E1F088234AF0EE0FFF1FBB1F661FB2
:10149000771F881F91505040A9F79E3F510570F06B
:1014A0005CCFA6CF5F3FECF3983EDCF38695779553
:1014B0006795B795F795E7959F5FC1F7FE2B880F66
:1014C000911D9695879597F90895F999FECF92BD4C
:1014D00081BDF89A992780B50895262FF999FECFF6
:1014E0001FBA92BD81BD20BD0FB6F894FA9AF99A41
:0A14F0000FBE01960895F894FFCF97
:1014FA00434745424845434241484247434644459B
:10150A001102440120202020202020202020050B29
:10151A00141623050B1416230101101010101010B5
:10152A0010101010010211192301021119230111BF
:10153A00040A04041F041B00040A04150E040A11F9
:10154A00040A111111110A04020100000053024891
:10155A00023D02320227021C02A4D0A443A4D0A452
:10156A0043A4D0A443A4D0A443A4D0A443A4D0A405
:10157A0043A4D0A4430000C443A4D082437BD492A2
:10158A0043A4D0A443719DAE43719DAE43719DAEF9
:10159A0043719DAE43719DAE43A4D0A443A4D0A48D
:1015AA0043A4D0A443A4D0A443A4D0A4437BD492FC
:1015BA00437BD49243A4D0A4437BD492430000C477
:1015CA00437072657373204120746F206265676986
:1015DA006E20006C6F736520206869676865737494
:1015EA003A0073636F72653A200077696E2020684B
:1015FA006967686573743A00796F75206C6F7365F3
:02160A000000DE
:00000001FF
